{
  "contracts/Transactions.sol": {
    "Transactions": {
      "abi": [
        {
          "anonymous": false,
          "inputs": [
            {
              "indexed": true,
              "internalType": "address",
              "name": "from",
              "type": "address"
            },
            {
              "indexed": true,
              "internalType": "address",
              "name": "to",
              "type": "address"
            },
            {
              "indexed": false,
              "internalType": "uint256",
              "name": "amount",
              "type": "uint256"
            },
            {
              "indexed": false,
              "internalType": "string",
              "name": "message",
              "type": "string"
            },
            {
              "indexed": false,
              "internalType": "uint256",
              "name": "timestamp",
              "type": "uint256"
            },
            {
              "indexed": false,
              "internalType": "string",
              "name": "keyword",
              "type": "string"
            }
          ],
          "name": "Transfer",
          "type": "event"
        },
        {
          "inputs": [
            {
              "internalType": "address payable",
              "name": "receiver",
              "type": "address"
            },
            {
              "internalType": "uint256",
              "name": "amount",
              "type": "uint256"
            },
            {
              "internalType": "string",
              "name": "message",
              "type": "string"
            },
            {
              "internalType": "string",
              "name": "keyword",
              "type": "string"
            }
          ],
          "name": "addToBlockChain",
          "outputs": [],
          "stateMutability": "nonpayable",
          "type": "function"
        },
        {
          "inputs": [],
          "name": "getAllTransactions",
          "outputs": [
            {
              "components": [
                {
                  "internalType": "address",
                  "name": "sender",
                  "type": "address"
                },
                {
                  "internalType": "address",
                  "name": "receiver",
                  "type": "address"
                },
                {
                  "internalType": "uint256",
                  "name": "amount",
                  "type": "uint256"
                },
                {
                  "internalType": "string",
                  "name": "message",
                  "type": "string"
                },
                {
                  "internalType": "uint256",
                  "name": "timestamp",
                  "type": "uint256"
                },
                {
                  "internalType": "string",
                  "name": "keyword",
                  "type": "string"
                }
              ],
              "internalType": "struct Transactions.TransferStruct[]",
              "name": "",
              "type": "tuple[]"
            }
          ],
          "stateMutability": "view",
          "type": "function"
        },
        {
          "inputs": [],
          "name": "getTransactionCount",
          "outputs": [
            {
              "internalType": "uint256",
              "name": "",
              "type": "uint256"
            }
          ],
          "stateMutability": "view",
          "type": "function"
        }
      ],
      "evm": {
        "bytecode": {
          "linkReferences": {},
          "object": "6080604052348015600f57600080fd5b50610db68061001f6000396000f3fe608060405234801561001057600080fd5b50600436106100415760003560e01c806327506f53146100465780632e7700f014610064578063b2da096014610082575b600080fd5b61004e61009e565b60405161005b9190610704565b60405180910390f35b61006c6102e1565b6040516100799190610735565b60405180910390f35b61009c60048036038101906100979190610903565b6102ea565b005b60606001805480602002602001604051908101604052809291908181526020016000905b828210156102d857838290600052602060002090600602016040518060c00160405290816000820160009054906101000a900473ffffffffffffffffffffffffffffffffffffffff1673ffffffffffffffffffffffffffffffffffffffff1673ffffffffffffffffffffffffffffffffffffffff1681526020016001820160009054906101000a900473ffffffffffffffffffffffffffffffffffffffff1673ffffffffffffffffffffffffffffffffffffffff1673ffffffffffffffffffffffffffffffffffffffff168152602001600282015481526020016003820180546101ab906109d1565b80601f01602080910402602001604051908101604052809291908181526020018280546101d7906109d1565b80156102245780601f106101f957610100808354040283529160200191610224565b820191906000526020600020905b81548152906001019060200180831161020757829003601f168201915b5050505050815260200160048201548152602001600582018054610247906109d1565b80601f0160208091040260200160405190810160405280929190818152602001828054610273906109d1565b80156102c05780601f10610295576101008083540402835291602001916102c0565b820191906000526020600020905b8154815290600101906020018083116102a357829003601f168201915b505050505081525050815260200190600101906100c2565b50505050905090565b60008054905090565b60016000808282546102fc9190610a31565b9250508190555060016040518060c001604052803373ffffffffffffffffffffffffffffffffffffffff1681526020018673ffffffffffffffffffffffffffffffffffffffff16815260200185815260200184815260200142815260200183815250908060018154018082558091505060019003906000526020600020906006020160009091909190915060008201518160000160006101000a81548173ffffffffffffffffffffffffffffffffffffffff021916908373ffffffffffffffffffffffffffffffffffffffff16021790555060208201518160010160006101000a81548173ffffffffffffffffffffffffffffffffffffffff021916908373ffffffffffffffffffffffffffffffffffffffff1602179055506040820151816002015560608201518160030190816104349190610c11565b506080820151816004015560a08201518160050190816104549190610c11565b5050508373ffffffffffffffffffffffffffffffffffffffff163373ffffffffffffffffffffffffffffffffffffffff167f416cfa4330a4565f45c2fd2dd4826a83a37443aba2ce6f79477c7355afac35fa858542866040516104ba9493929190610d2d565b60405180910390a350505050565b600081519050919050565b600082825260208201905092915050565b6000819050602082019050919050565b600073ffffffffffffffffffffffffffffffffffffffff82169050919050565b600061051f826104f4565b9050919050565b61052f81610514565b82525050565b6000819050919050565b61054881610535565b82525050565b600081519050919050565b600082825260208201905092915050565b60005b8381101561058857808201518184015260208101905061056d565b60008484015250505050565b6000601f19601f8301169050919050565b60006105b08261054e565b6105ba8185610559565b93506105ca81856020860161056a565b6105d381610594565b840191505092915050565b600060c0830160008301516105f66000860182610526565b5060208301516106096020860182610526565b50604083015161061c604086018261053f565b506060830151848203606086015261063482826105a5565b9150506080830151610649608086018261053f565b5060a083015184820360a086015261066182826105a5565b9150508091505092915050565b600061067a83836105de565b905092915050565b6000602082019050919050565b600061069a826104c8565b6106a481856104d3565b9350836020820285016106b6856104e4565b8060005b858110156106f257848403895281516106d3858261066e565b94506106de83610682565b925060208a019950506001810190506106ba565b50829750879550505050505092915050565b6000602082019050818103600083015261071e818461068f565b905092915050565b61072f81610535565b82525050565b600060208201905061074a6000830184610726565b92915050565b6000604051905090565b600080fd5b600080fd5b600061076f826104f4565b9050919050565b61077f81610764565b811461078a57600080fd5b50565b60008135905061079c81610776565b92915050565b6107ab81610535565b81146107b657600080fd5b50565b6000813590506107c8816107a2565b92915050565b600080fd5b600080fd5b7f4e487b7100000000000000000000000000000000000000000000000000000000600052604160045260246000fd5b61081082610594565b810181811067ffffffffffffffff8211171561082f5761082e6107d8565b5b80604052505050565b6000610842610750565b905061084e8282610807565b919050565b600067ffffffffffffffff82111561086e5761086d6107d8565b5b61087782610594565b9050602081019050919050565b82818337600083830152505050565b60006108a66108a184610853565b610838565b9050828152602081018484840111156108c2576108c16107d3565b5b6108cd848285610884565b509392505050565b600082601f8301126108ea576108e96107ce565b5b81356108fa848260208601610893565b91505092915050565b6000806000806080858703121561091d5761091c61075a565b5b600061092b8782880161078d565b945050602061093c878288016107b9565b935050604085013567ffffffffffffffff81111561095d5761095c61075f565b5b610969878288016108d5565b925050606085013567ffffffffffffffff81111561098a5761098961075f565b5b610996878288016108d5565b91505092959194509250565b7f4e487b7100000000000000000000000000000000000000000000000000000000600052602260045260246000fd5b600060028204905060018216806109e957607f821691505b6020821081036109fc576109fb6109a2565b5b50919050565b7f4e487b7100000000000000000000000000000000000000000000000000000000600052601160045260246000fd5b6000610a3c82610535565b9150610a4783610535565b9250828201905080821115610a5f57610a5e610a02565b5b92915050565b60008190508160005260206000209050919050565b60006020601f8301049050919050565b600082821b905092915050565b600060088302610ac77fffffffffffffffffffffffffffffffffffffffffffffffffffffffffffffffff82610a8a565b610ad18683610a8a565b95508019841693508086168417925050509392505050565b6000819050919050565b6000610b0e610b09610b0484610535565b610ae9565b610535565b9050919050565b6000819050919050565b610b2883610af3565b610b3c610b3482610b15565b848454610a97565b825550505050565b600090565b610b51610b44565b610b5c818484610b1f565b505050565b5b81811015610b8057610b75600082610b49565b600181019050610b62565b5050565b601f821115610bc557610b9681610a65565b610b9f84610a7a565b81016020851015610bae578190505b610bc2610bba85610a7a565b830182610b61565b50505b505050565b600082821c905092915050565b6000610be860001984600802610bca565b1980831691505092915050565b6000610c018383610bd7565b9150826002028217905092915050565b610c1a8261054e565b67ffffffffffffffff811115610c3357610c326107d8565b5b610c3d82546109d1565b610c48828285610b84565b600060209050601f831160018114610c7b5760008415610c69578287015190505b610c738582610bf5565b865550610cdb565b601f198416610c8986610a65565b60005b82811015610cb157848901518255600182019150602085019450602081019050610c8c565b86831015610cce5784890151610cca601f891682610bd7565b8355505b6001600288020188555050505b505050505050565b600082825260208201905092915050565b6000610cff8261054e565b610d098185610ce3565b9350610d1981856020860161056a565b610d2281610594565b840191505092915050565b6000608082019050610d426000830187610726565b8181036020830152610d548186610cf4565b9050610d636040830185610726565b8181036060830152610d758184610cf4565b90509594505050505056fea2646970667358221220f6843732ea1d2bb9affec92b615c5d0ba0582770bbd11e1f7db72c357e4f411e64736f6c634300081c0033",
          "opcodes": "PUSH1 0x80 PUSH1 0x40 MSTORE CALLVALUE DUP1 ISZERO PUSH1 0xF JUMPI PUSH1 0x0 DUP1 REVERT JUMPDEST POP PUSH2 0xDB6 DUP1 PUSH2 0x1F PUSH1 0x0 CODECOPY PUSH1 0x0 RETURN INVALID PUSH1 0x80 PUSH1 0x40 MSTORE CALLVALUE DUP1 ISZERO PUSH2 0x10 JUMPI PUSH1 0x0 DUP1 REVERT JUMPDEST POP PUSH1 0x4 CALLDATASIZE LT PUSH2 0x41 JUMPI PUSH1 0x0 CALLDATALOAD PUSH1 0xE0 SHR DUP1 PUSH4 0x27506F53 EQ PUSH2 0x46 JUMPI DUP1 PUSH4 0x2E7700F0 EQ PUSH2 0x64 JUMPI DUP1 PUSH4 0xB2DA0960 EQ PUSH2 0x82 JUMPI JUMPDEST PUSH1 0x0 DUP1 REVERT JUMPDEST PUSH2 0x4E PUSH2 0x9E JUMP JUMPDEST PUSH1 0x40 MLOAD PUSH2 0x5B SWAP2 SWAP1 PUSH2 0x704 JUMP JUMPDEST PUSH1 0x40 MLOAD DUP1 SWAP2 SUB SWAP1 RETURN JUMPDEST PUSH2 0x6C PUSH2 0x2E1 JUMP JUMPDEST PUSH1 0x40 MLOAD PUSH2 0x79 SWAP2 SWAP1 PUSH2 0x735 JUMP JUMPDEST PUSH1 0x40 MLOAD DUP1 SWAP2 SUB SWAP1 RETURN JUMPDEST PUSH2 0x9C PUSH1 0x4 DUP1 CALLDATASIZE SUB DUP2 ADD SWAP1 PUSH2 0x97 SWAP2 SWAP1 PUSH2 0x903 JUMP JUMPDEST PUSH2 0x2EA JUMP JUMPDEST STOP JUMPDEST PUSH1 0x60 PUSH1 0x1 DUP1 SLOAD DUP1 PUSH1 0x20 MUL PUSH1 0x20 ADD PUSH1 0x40 MLOAD SWAP1 DUP2 ADD PUSH1 0x40 MSTORE DUP1 SWAP3 SWAP2 SWAP1 DUP2 DUP2 MSTORE PUSH1 0x20 ADD PUSH1 0x0 SWAP1 JUMPDEST DUP3 DUP3 LT ISZERO PUSH2 0x2D8 JUMPI DUP4 DUP3 SWAP1 PUSH1 0x0 MSTORE PUSH1 0x20 PUSH1 0x0 KECCAK256 SWAP1 PUSH1 0x6 MUL ADD PUSH1 0x40 MLOAD DUP1 PUSH1 0xC0 ADD PUSH1 0x40 MSTORE SWAP1 DUP2 PUSH1 0x0 DUP3 ADD PUSH1 0x0 SWAP1 SLOAD SWAP1 PUSH2 0x100 EXP SWAP1 DIV PUSH20 0xFFFFFFFFFFFFFFFFFFFFFFFFFFFFFFFFFFFFFFFF AND PUSH20 0xFFFFFFFFFFFFFFFFFFFFFFFFFFFFFFFFFFFFFFFF AND PUSH20 0xFFFFFFFFFFFFFFFFFFFFFFFFFFFFFFFFFFFFFFFF AND DUP2 MSTORE PUSH1 0x20 ADD PUSH1 0x1 DUP3 ADD PUSH1 0x0 SWAP1 SLOAD SWAP1 PUSH2 0x100 EXP SWAP1 DIV PUSH20 0xFFFFFFFFFFFFFFFFFFFFFFFFFFFFFFFFFFFFFFFF AND PUSH20 0xFFFFFFFFFFFFFFFFFFFFFFFFFFFFFFFFFFFFFFFF AND PUSH20 0xFFFFFFFFFFFFFFFFFFFFFFFFFFFFFFFFFFFFFFFF AND DUP2 MSTORE PUSH1 0x20 ADD PUSH1 0x2 DUP3 ADD SLOAD DUP2 MSTORE PUSH1 0x20 ADD PUSH1 0x3 DUP3 ADD DUP1 SLOAD PUSH2 0x1AB SWAP1 PUSH2 0x9D1 JUMP JUMPDEST DUP1 PUSH1 0x1F ADD PUSH1 0x20 DUP1 SWAP2 DIV MUL PUSH1 0x20 ADD PUSH1 0x40 MLOAD SWAP1 DUP2 ADD PUSH1 0x40 MSTORE DUP1 SWAP3 SWAP2 SWAP1 DUP2 DUP2 MSTORE PUSH1 0x20 ADD DUP3 DUP1 SLOAD PUSH2 0x1D7 SWAP1 PUSH2 0x9D1 JUMP JUMPDEST DUP1 ISZERO PUSH2 0x224 JUMPI DUP1 PUSH1 0x1F LT PUSH2 0x1F9 JUMPI PUSH2 0x100 DUP1 DUP4 SLOAD DIV MUL DUP4 MSTORE SWAP2 PUSH1 0x20 ADD SWAP2 PUSH2 0x224 JUMP JUMPDEST DUP3 ADD SWAP2 SWAP1 PUSH1 0x0 MSTORE PUSH1 0x20 PUSH1 0x0 KECCAK256 SWAP1 JUMPDEST DUP2 SLOAD DUP2 MSTORE SWAP1 PUSH1 0x1 ADD SWAP1 PUSH1 0x20 ADD DUP1 DUP4 GT PUSH2 0x207 JUMPI DUP3 SWAP1 SUB PUSH1 0x1F AND DUP3 ADD SWAP2 JUMPDEST POP POP POP POP POP DUP2 MSTORE PUSH1 0x20 ADD PUSH1 0x4 DUP3 ADD SLOAD DUP2 MSTORE PUSH1 0x20 ADD PUSH1 0x5 DUP3 ADD DUP1 SLOAD PUSH2 0x247 SWAP1 PUSH2 0x9D1 JUMP JUMPDEST DUP1 PUSH1 0x1F ADD PUSH1 0x20 DUP1 SWAP2 DIV MUL PUSH1 0x20 ADD PUSH1 0x40 MLOAD SWAP1 DUP2 ADD PUSH1 0x40 MSTORE DUP1 SWAP3 SWAP2 SWAP1 DUP2 DUP2 MSTORE PUSH1 0x20 ADD DUP3 DUP1 SLOAD PUSH2 0x273 SWAP1 PUSH2 0x9D1 JUMP JUMPDEST DUP1 ISZERO PUSH2 0x2C0 JUMPI DUP1 PUSH1 0x1F LT PUSH2 0x295 JUMPI PUSH2 0x100 DUP1 DUP4 SLOAD DIV MUL DUP4 MSTORE SWAP2 PUSH1 0x20 ADD SWAP2 PUSH2 0x2C0 JUMP JUMPDEST DUP3 ADD SWAP2 SWAP1 PUSH1 0x0 MSTORE PUSH1 0x20 PUSH1 0x0 KECCAK256 SWAP1 JUMPDEST DUP2 SLOAD DUP2 MSTORE SWAP1 PUSH1 0x1 ADD SWAP1 PUSH1 0x20 ADD DUP1 DUP4 GT PUSH2 0x2A3 JUMPI DUP3 SWAP1 SUB PUSH1 0x1F AND DUP3 ADD SWAP2 JUMPDEST POP POP POP POP POP DUP2 MSTORE POP POP DUP2 MSTORE PUSH1 0x20 ADD SWAP1 PUSH1 0x1 ADD SWAP1 PUSH2 0xC2 JUMP JUMPDEST POP POP POP POP SWAP1 POP SWAP1 JUMP JUMPDEST PUSH1 0x0 DUP1 SLOAD SWAP1 POP SWAP1 JUMP JUMPDEST PUSH1 0x1 PUSH1 0x0 DUP1 DUP3 DUP3 SLOAD PUSH2 0x2FC SWAP2 SWAP1 PUSH2 0xA31 JUMP JUMPDEST SWAP3 POP POP DUP2 SWAP1 SSTORE POP PUSH1 0x1 PUSH1 0x40 MLOAD DUP1 PUSH1 0xC0 ADD PUSH1 0x40 MSTORE DUP1 CALLER PUSH20 0xFFFFFFFFFFFFFFFFFFFFFFFFFFFFFFFFFFFFFFFF AND DUP2 MSTORE PUSH1 0x20 ADD DUP7 PUSH20 0xFFFFFFFFFFFFFFFFFFFFFFFFFFFFFFFFFFFFFFFF AND DUP2 MSTORE PUSH1 0x20 ADD DUP6 DUP2 MSTORE PUSH1 0x20 ADD DUP5 DUP2 MSTORE PUSH1 0x20 ADD TIMESTAMP DUP2 MSTORE PUSH1 0x20 ADD DUP4 DUP2 MSTORE POP SWAP1 DUP1 PUSH1 0x1 DUP2 SLOAD ADD DUP1 DUP3 SSTORE DUP1 SWAP2 POP POP PUSH1 0x1 SWAP1 SUB SWAP1 PUSH1 0x0 MSTORE PUSH1 0x20 PUSH1 0x0 KECCAK256 SWAP1 PUSH1 0x6 MUL ADD PUSH1 0x0 SWAP1 SWAP2 SWAP1 SWAP2 SWAP1 SWAP2 POP PUSH1 0x0 DUP3 ADD MLOAD DUP2 PUSH1 0x0 ADD PUSH1 0x0 PUSH2 0x100 EXP DUP2 SLOAD DUP2 PUSH20 0xFFFFFFFFFFFFFFFFFFFFFFFFFFFFFFFFFFFFFFFF MUL NOT AND SWAP1 DUP4 PUSH20 0xFFFFFFFFFFFFFFFFFFFFFFFFFFFFFFFFFFFFFFFF AND MUL OR SWAP1 SSTORE POP PUSH1 0x20 DUP3 ADD MLOAD DUP2 PUSH1 0x1 ADD PUSH1 0x0 PUSH2 0x100 EXP DUP2 SLOAD DUP2 PUSH20 0xFFFFFFFFFFFFFFFFFFFFFFFFFFFFFFFFFFFFFFFF MUL NOT AND SWAP1 DUP4 PUSH20 0xFFFFFFFFFFFFFFFFFFFFFFFFFFFFFFFFFFFFFFFF AND MUL OR SWAP1 SSTORE POP PUSH1 0x40 DUP3 ADD MLOAD DUP2 PUSH1 0x2 ADD SSTORE PUSH1 0x60 DUP3 ADD MLOAD DUP2 PUSH1 0x3 ADD SWAP1 DUP2 PUSH2 0x434 SWAP2 SWAP1 PUSH2 0xC11 JUMP JUMPDEST POP PUSH1 0x80 DUP3 ADD MLOAD DUP2 PUSH1 0x4 ADD SSTORE PUSH1 0xA0 DUP3 ADD MLOAD DUP2 PUSH1 0x5 ADD SWAP1 DUP2 PUSH2 0x454 SWAP2 SWAP1 PUSH2 0xC11 JUMP JUMPDEST POP POP POP DUP4 PUSH20 0xFFFFFFFFFFFFFFFFFFFFFFFFFFFFFFFFFFFFFFFF AND CALLER PUSH20 0xFFFFFFFFFFFFFFFFFFFFFFFFFFFFFFFFFFFFFFFF AND PUSH32 0x416CFA4330A4565F45C2FD2DD4826A83A37443ABA2CE6F79477C7355AFAC35FA DUP6 DUP6 TIMESTAMP DUP7 PUSH1 0x40 MLOAD PUSH2 0x4BA SWAP5 SWAP4 SWAP3 SWAP2 SWAP1 PUSH2 0xD2D JUMP JUMPDEST PUSH1 0x40 MLOAD DUP1 SWAP2 SUB SWAP1 LOG3 POP POP POP POP JUMP JUMPDEST PUSH1 0x0 DUP2 MLOAD SWAP1 POP SWAP2 SWAP1 POP JUMP JUMPDEST PUSH1 0x0 DUP3 DUP3 MSTORE PUSH1 0x20 DUP3 ADD SWAP1 POP SWAP3 SWAP2 POP POP JUMP JUMPDEST PUSH1 0x0 DUP2 SWAP1 POP PUSH1 0x20 DUP3 ADD SWAP1 POP SWAP2 SWAP1 POP JUMP JUMPDEST PUSH1 0x0 PUSH20 0xFFFFFFFFFFFFFFFFFFFFFFFFFFFFFFFFFFFFFFFF DUP3 AND SWAP1 POP SWAP2 SWAP1 POP JUMP JUMPDEST PUSH1 0x0 PUSH2 0x51F DUP3 PUSH2 0x4F4 JUMP JUMPDEST SWAP1 POP SWAP2 SWAP1 POP JUMP JUMPDEST PUSH2 0x52F DUP2 PUSH2 0x514 JUMP JUMPDEST DUP3 MSTORE POP POP JUMP JUMPDEST PUSH1 0x0 DUP2 SWAP1 POP SWAP2 SWAP1 POP JUMP JUMPDEST PUSH2 0x548 DUP2 PUSH2 0x535 JUMP JUMPDEST DUP3 MSTORE POP POP JUMP JUMPDEST PUSH1 0x0 DUP2 MLOAD SWAP1 POP SWAP2 SWAP1 POP JUMP JUMPDEST PUSH1 0x0 DUP3 DUP3 MSTORE PUSH1 0x20 DUP3 ADD SWAP1 POP SWAP3 SWAP2 POP POP JUMP JUMPDEST PUSH1 0x0 JUMPDEST DUP4 DUP2 LT ISZERO PUSH2 0x588 JUMPI DUP1 DUP3 ADD MLOAD DUP2 DUP5 ADD MSTORE PUSH1 0x20 DUP2 ADD SWAP1 POP PUSH2 0x56D JUMP JUMPDEST PUSH1 0x0 DUP5 DUP5 ADD MSTORE POP POP POP POP JUMP JUMPDEST PUSH1 0x0 PUSH1 0x1F NOT PUSH1 0x1F DUP4 ADD AND SWAP1 POP SWAP2 SWAP1 POP JUMP JUMPDEST PUSH1 0x0 PUSH2 0x5B0 DUP3 PUSH2 0x54E JUMP JUMPDEST PUSH2 0x5BA DUP2 DUP6 PUSH2 0x559 JUMP JUMPDEST SWAP4 POP PUSH2 0x5CA DUP2 DUP6 PUSH1 0x20 DUP7 ADD PUSH2 0x56A JUMP JUMPDEST PUSH2 0x5D3 DUP2 PUSH2 0x594 JUMP JUMPDEST DUP5 ADD SWAP2 POP POP SWAP3 SWAP2 POP POP JUMP JUMPDEST PUSH1 0x0 PUSH1 0xC0 DUP4 ADD PUSH1 0x0 DUP4 ADD MLOAD PUSH2 0x5F6 PUSH1 0x0 DUP7 ADD DUP3 PUSH2 0x526 JUMP JUMPDEST POP PUSH1 0x20 DUP4 ADD MLOAD PUSH2 0x609 PUSH1 0x20 DUP7 ADD DUP3 PUSH2 0x526 JUMP JUMPDEST POP PUSH1 0x40 DUP4 ADD MLOAD PUSH2 0x61C PUSH1 0x40 DUP7 ADD DUP3 PUSH2 0x53F JUMP JUMPDEST POP PUSH1 0x60 DUP4 ADD MLOAD DUP5 DUP3 SUB PUSH1 0x60 DUP7 ADD MSTORE PUSH2 0x634 DUP3 DUP3 PUSH2 0x5A5 JUMP JUMPDEST SWAP2 POP POP PUSH1 0x80 DUP4 ADD MLOAD PUSH2 0x649 PUSH1 0x80 DUP7 ADD DUP3 PUSH2 0x53F JUMP JUMPDEST POP PUSH1 0xA0 DUP4 ADD MLOAD DUP5 DUP3 SUB PUSH1 0xA0 DUP7 ADD MSTORE PUSH2 0x661 DUP3 DUP3 PUSH2 0x5A5 JUMP JUMPDEST SWAP2 POP POP DUP1 SWAP2 POP POP SWAP3 SWAP2 POP POP JUMP JUMPDEST PUSH1 0x0 PUSH2 0x67A DUP4 DUP4 PUSH2 0x5DE JUMP JUMPDEST SWAP1 POP SWAP3 SWAP2 POP POP JUMP JUMPDEST PUSH1 0x0 PUSH1 0x20 DUP3 ADD SWAP1 POP SWAP2 SWAP1 POP JUMP JUMPDEST PUSH1 0x0 PUSH2 0x69A DUP3 PUSH2 0x4C8 JUMP JUMPDEST PUSH2 0x6A4 DUP2 DUP6 PUSH2 0x4D3 JUMP JUMPDEST SWAP4 POP DUP4 PUSH1 0x20 DUP3 MUL DUP6 ADD PUSH2 0x6B6 DUP6 PUSH2 0x4E4 JUMP JUMPDEST DUP1 PUSH1 0x0 JUMPDEST DUP6 DUP2 LT ISZERO PUSH2 0x6F2 JUMPI DUP5 DUP5 SUB DUP10 MSTORE DUP2 MLOAD PUSH2 0x6D3 DUP6 DUP3 PUSH2 0x66E JUMP JUMPDEST SWAP5 POP PUSH2 0x6DE DUP4 PUSH2 0x682 JUMP JUMPDEST SWAP3 POP PUSH1 0x20 DUP11 ADD SWAP10 POP POP PUSH1 0x1 DUP2 ADD SWAP1 POP PUSH2 0x6BA JUMP JUMPDEST POP DUP3 SWAP8 POP DUP8 SWAP6 POP POP POP POP POP POP SWAP3 SWAP2 POP POP JUMP JUMPDEST PUSH1 0x0 PUSH1 0x20 DUP3 ADD SWAP1 POP DUP2 DUP2 SUB PUSH1 0x0 DUP4 ADD MSTORE PUSH2 0x71E DUP2 DUP5 PUSH2 0x68F JUMP JUMPDEST SWAP1 POP SWAP3 SWAP2 POP POP JUMP JUMPDEST PUSH2 0x72F DUP2 PUSH2 0x535 JUMP JUMPDEST DUP3 MSTORE POP POP JUMP JUMPDEST PUSH1 0x0 PUSH1 0x20 DUP3 ADD SWAP1 POP PUSH2 0x74A PUSH1 0x0 DUP4 ADD DUP5 PUSH2 0x726 JUMP JUMPDEST SWAP3 SWAP2 POP POP JUMP JUMPDEST PUSH1 0x0 PUSH1 0x40 MLOAD SWAP1 POP SWAP1 JUMP JUMPDEST PUSH1 0x0 DUP1 REVERT JUMPDEST PUSH1 0x0 DUP1 REVERT JUMPDEST PUSH1 0x0 PUSH2 0x76F DUP3 PUSH2 0x4F4 JUMP JUMPDEST SWAP1 POP SWAP2 SWAP1 POP JUMP JUMPDEST PUSH2 0x77F DUP2 PUSH2 0x764 JUMP JUMPDEST DUP2 EQ PUSH2 0x78A JUMPI PUSH1 0x0 DUP1 REVERT JUMPDEST POP JUMP JUMPDEST PUSH1 0x0 DUP2 CALLDATALOAD SWAP1 POP PUSH2 0x79C DUP2 PUSH2 0x776 JUMP JUMPDEST SWAP3 SWAP2 POP POP JUMP JUMPDEST PUSH2 0x7AB DUP2 PUSH2 0x535 JUMP JUMPDEST DUP2 EQ PUSH2 0x7B6 JUMPI PUSH1 0x0 DUP1 REVERT JUMPDEST POP JUMP JUMPDEST PUSH1 0x0 DUP2 CALLDATALOAD SWAP1 POP PUSH2 0x7C8 DUP2 PUSH2 0x7A2 JUMP JUMPDEST SWAP3 SWAP2 POP POP JUMP JUMPDEST PUSH1 0x0 DUP1 REVERT JUMPDEST PUSH1 0x0 DUP1 REVERT JUMPDEST PUSH32 0x4E487B7100000000000000000000000000000000000000000000000000000000 PUSH1 0x0 MSTORE PUSH1 0x41 PUSH1 0x4 MSTORE PUSH1 0x24 PUSH1 0x0 REVERT JUMPDEST PUSH2 0x810 DUP3 PUSH2 0x594 JUMP JUMPDEST DUP2 ADD DUP2 DUP2 LT PUSH8 0xFFFFFFFFFFFFFFFF DUP3 GT OR ISZERO PUSH2 0x82F JUMPI PUSH2 0x82E PUSH2 0x7D8 JUMP JUMPDEST JUMPDEST DUP1 PUSH1 0x40 MSTORE POP POP POP JUMP JUMPDEST PUSH1 0x0 PUSH2 0x842 PUSH2 0x750 JUMP JUMPDEST SWAP1 POP PUSH2 0x84E DUP3 DUP3 PUSH2 0x807 JUMP JUMPDEST SWAP2 SWAP1 POP JUMP JUMPDEST PUSH1 0x0 PUSH8 0xFFFFFFFFFFFFFFFF DUP3 GT ISZERO PUSH2 0x86E JUMPI PUSH2 0x86D PUSH2 0x7D8 JUMP JUMPDEST JUMPDEST PUSH2 0x877 DUP3 PUSH2 0x594 JUMP JUMPDEST SWAP1 POP PUSH1 0x20 DUP2 ADD SWAP1 POP SWAP2 SWAP1 POP JUMP JUMPDEST DUP3 DUP2 DUP4 CALLDATACOPY PUSH1 0x0 DUP4 DUP4 ADD MSTORE POP POP POP JUMP JUMPDEST PUSH1 0x0 PUSH2 0x8A6 PUSH2 0x8A1 DUP5 PUSH2 0x853 JUMP JUMPDEST PUSH2 0x838 JUMP JUMPDEST SWAP1 POP DUP3 DUP2 MSTORE PUSH1 0x20 DUP2 ADD DUP5 DUP5 DUP5 ADD GT ISZERO PUSH2 0x8C2 JUMPI PUSH2 0x8C1 PUSH2 0x7D3 JUMP JUMPDEST JUMPDEST PUSH2 0x8CD DUP5 DUP3 DUP6 PUSH2 0x884 JUMP JUMPDEST POP SWAP4 SWAP3 POP POP POP JUMP JUMPDEST PUSH1 0x0 DUP3 PUSH1 0x1F DUP4 ADD SLT PUSH2 0x8EA JUMPI PUSH2 0x8E9 PUSH2 0x7CE JUMP JUMPDEST JUMPDEST DUP2 CALLDATALOAD PUSH2 0x8FA DUP5 DUP3 PUSH1 0x20 DUP7 ADD PUSH2 0x893 JUMP JUMPDEST SWAP2 POP POP SWAP3 SWAP2 POP POP JUMP JUMPDEST PUSH1 0x0 DUP1 PUSH1 0x0 DUP1 PUSH1 0x80 DUP6 DUP8 SUB SLT ISZERO PUSH2 0x91D JUMPI PUSH2 0x91C PUSH2 0x75A JUMP JUMPDEST JUMPDEST PUSH1 0x0 PUSH2 0x92B DUP8 DUP3 DUP9 ADD PUSH2 0x78D JUMP JUMPDEST SWAP5 POP POP PUSH1 0x20 PUSH2 0x93C DUP8 DUP3 DUP9 ADD PUSH2 0x7B9 JUMP JUMPDEST SWAP4 POP POP PUSH1 0x40 DUP6 ADD CALLDATALOAD PUSH8 0xFFFFFFFFFFFFFFFF DUP2 GT ISZERO PUSH2 0x95D JUMPI PUSH2 0x95C PUSH2 0x75F JUMP JUMPDEST JUMPDEST PUSH2 0x969 DUP8 DUP3 DUP9 ADD PUSH2 0x8D5 JUMP JUMPDEST SWAP3 POP POP PUSH1 0x60 DUP6 ADD CALLDATALOAD PUSH8 0xFFFFFFFFFFFFFFFF DUP2 GT ISZERO PUSH2 0x98A JUMPI PUSH2 0x989 PUSH2 0x75F JUMP JUMPDEST JUMPDEST PUSH2 0x996 DUP8 DUP3 DUP9 ADD PUSH2 0x8D5 JUMP JUMPDEST SWAP2 POP POP SWAP3 SWAP6 SWAP2 SWAP5 POP SWAP3 POP JUMP JUMPDEST PUSH32 0x4E487B7100000000000000000000000000000000000000000000000000000000 PUSH1 0x0 MSTORE PUSH1 0x22 PUSH1 0x4 MSTORE PUSH1 0x24 PUSH1 0x0 REVERT JUMPDEST PUSH1 0x0 PUSH1 0x2 DUP3 DIV SWAP1 POP PUSH1 0x1 DUP3 AND DUP1 PUSH2 0x9E9 JUMPI PUSH1 0x7F DUP3 AND SWAP2 POP JUMPDEST PUSH1 0x20 DUP3 LT DUP2 SUB PUSH2 0x9FC JUMPI PUSH2 0x9FB PUSH2 0x9A2 JUMP JUMPDEST JUMPDEST POP SWAP2 SWAP1 POP JUMP JUMPDEST PUSH32 0x4E487B7100000000000000000000000000000000000000000000000000000000 PUSH1 0x0 MSTORE PUSH1 0x11 PUSH1 0x4 MSTORE PUSH1 0x24 PUSH1 0x0 REVERT JUMPDEST PUSH1 0x0 PUSH2 0xA3C DUP3 PUSH2 0x535 JUMP JUMPDEST SWAP2 POP PUSH2 0xA47 DUP4 PUSH2 0x535 JUMP JUMPDEST SWAP3 POP DUP3 DUP3 ADD SWAP1 POP DUP1 DUP3 GT ISZERO PUSH2 0xA5F JUMPI PUSH2 0xA5E PUSH2 0xA02 JUMP JUMPDEST JUMPDEST SWAP3 SWAP2 POP POP JUMP JUMPDEST PUSH1 0x0 DUP2 SWAP1 POP DUP2 PUSH1 0x0 MSTORE PUSH1 0x20 PUSH1 0x0 KECCAK256 SWAP1 POP SWAP2 SWAP1 POP JUMP JUMPDEST PUSH1 0x0 PUSH1 0x20 PUSH1 0x1F DUP4 ADD DIV SWAP1 POP SWAP2 SWAP1 POP JUMP JUMPDEST PUSH1 0x0 DUP3 DUP3 SHL SWAP1 POP SWAP3 SWAP2 POP POP JUMP JUMPDEST PUSH1 0x0 PUSH1 0x8 DUP4 MUL PUSH2 0xAC7 PUSH32 0xFFFFFFFFFFFFFFFFFFFFFFFFFFFFFFFFFFFFFFFFFFFFFFFFFFFFFFFFFFFFFFFF DUP3 PUSH2 0xA8A JUMP JUMPDEST PUSH2 0xAD1 DUP7 DUP4 PUSH2 0xA8A JUMP JUMPDEST SWAP6 POP DUP1 NOT DUP5 AND SWAP4 POP DUP1 DUP7 AND DUP5 OR SWAP3 POP POP POP SWAP4 SWAP3 POP POP POP JUMP JUMPDEST PUSH1 0x0 DUP2 SWAP1 POP SWAP2 SWAP1 POP JUMP JUMPDEST PUSH1 0x0 PUSH2 0xB0E PUSH2 0xB09 PUSH2 0xB04 DUP5 PUSH2 0x535 JUMP JUMPDEST PUSH2 0xAE9 JUMP JUMPDEST PUSH2 0x535 JUMP JUMPDEST SWAP1 POP SWAP2 SWAP1 POP JUMP JUMPDEST PUSH1 0x0 DUP2 SWAP1 POP SWAP2 SWAP1 POP JUMP JUMPDEST PUSH2 0xB28 DUP4 PUSH2 0xAF3 JUMP JUMPDEST PUSH2 0xB3C PUSH2 0xB34 DUP3 PUSH2 0xB15 JUMP JUMPDEST DUP5 DUP5 SLOAD PUSH2 0xA97 JUMP JUMPDEST DUP3 SSTORE POP POP POP POP JUMP JUMPDEST PUSH1 0x0 SWAP1 JUMP JUMPDEST PUSH2 0xB51 PUSH2 0xB44 JUMP JUMPDEST PUSH2 0xB5C DUP2 DUP5 DUP5 PUSH2 0xB1F JUMP JUMPDEST POP POP POP JUMP JUMPDEST JUMPDEST DUP2 DUP2 LT ISZERO PUSH2 0xB80 JUMPI PUSH2 0xB75 PUSH1 0x0 DUP3 PUSH2 0xB49 JUMP JUMPDEST PUSH1 0x1 DUP2 ADD SWAP1 POP PUSH2 0xB62 JUMP JUMPDEST POP POP JUMP JUMPDEST PUSH1 0x1F DUP3 GT ISZERO PUSH2 0xBC5 JUMPI PUSH2 0xB96 DUP2 PUSH2 0xA65 JUMP JUMPDEST PUSH2 0xB9F DUP5 PUSH2 0xA7A JUMP JUMPDEST DUP2 ADD PUSH1 0x20 DUP6 LT ISZERO PUSH2 0xBAE JUMPI DUP2 SWAP1 POP JUMPDEST PUSH2 0xBC2 PUSH2 0xBBA DUP6 PUSH2 0xA7A JUMP JUMPDEST DUP4 ADD DUP3 PUSH2 0xB61 JUMP JUMPDEST POP POP JUMPDEST POP POP POP JUMP JUMPDEST PUSH1 0x0 DUP3 DUP3 SHR SWAP1 POP SWAP3 SWAP2 POP POP JUMP JUMPDEST PUSH1 0x0 PUSH2 0xBE8 PUSH1 0x0 NOT DUP5 PUSH1 0x8 MUL PUSH2 0xBCA JUMP JUMPDEST NOT DUP1 DUP4 AND SWAP2 POP POP SWAP3 SWAP2 POP POP JUMP JUMPDEST PUSH1 0x0 PUSH2 0xC01 DUP4 DUP4 PUSH2 0xBD7 JUMP JUMPDEST SWAP2 POP DUP3 PUSH1 0x2 MUL DUP3 OR SWAP1 POP SWAP3 SWAP2 POP POP JUMP JUMPDEST PUSH2 0xC1A DUP3 PUSH2 0x54E JUMP JUMPDEST PUSH8 0xFFFFFFFFFFFFFFFF DUP2 GT ISZERO PUSH2 0xC33 JUMPI PUSH2 0xC32 PUSH2 0x7D8 JUMP JUMPDEST JUMPDEST PUSH2 0xC3D DUP3 SLOAD PUSH2 0x9D1 JUMP JUMPDEST PUSH2 0xC48 DUP3 DUP3 DUP6 PUSH2 0xB84 JUMP JUMPDEST PUSH1 0x0 PUSH1 0x20 SWAP1 POP PUSH1 0x1F DUP4 GT PUSH1 0x1 DUP2 EQ PUSH2 0xC7B JUMPI PUSH1 0x0 DUP5 ISZERO PUSH2 0xC69 JUMPI DUP3 DUP8 ADD MLOAD SWAP1 POP JUMPDEST PUSH2 0xC73 DUP6 DUP3 PUSH2 0xBF5 JUMP JUMPDEST DUP7 SSTORE POP PUSH2 0xCDB JUMP JUMPDEST PUSH1 0x1F NOT DUP5 AND PUSH2 0xC89 DUP7 PUSH2 0xA65 JUMP JUMPDEST PUSH1 0x0 JUMPDEST DUP3 DUP2 LT ISZERO PUSH2 0xCB1 JUMPI DUP5 DUP10 ADD MLOAD DUP3 SSTORE PUSH1 0x1 DUP3 ADD SWAP2 POP PUSH1 0x20 DUP6 ADD SWAP5 POP PUSH1 0x20 DUP2 ADD SWAP1 POP PUSH2 0xC8C JUMP JUMPDEST DUP7 DUP4 LT ISZERO PUSH2 0xCCE JUMPI DUP5 DUP10 ADD MLOAD PUSH2 0xCCA PUSH1 0x1F DUP10 AND DUP3 PUSH2 0xBD7 JUMP JUMPDEST DUP4 SSTORE POP JUMPDEST PUSH1 0x1 PUSH1 0x2 DUP9 MUL ADD DUP9 SSTORE POP POP POP JUMPDEST POP POP POP POP POP POP JUMP JUMPDEST PUSH1 0x0 DUP3 DUP3 MSTORE PUSH1 0x20 DUP3 ADD SWAP1 POP SWAP3 SWAP2 POP POP JUMP JUMPDEST PUSH1 0x0 PUSH2 0xCFF DUP3 PUSH2 0x54E JUMP JUMPDEST PUSH2 0xD09 DUP2 DUP6 PUSH2 0xCE3 JUMP JUMPDEST SWAP4 POP PUSH2 0xD19 DUP2 DUP6 PUSH1 0x20 DUP7 ADD PUSH2 0x56A JUMP JUMPDEST PUSH2 0xD22 DUP2 PUSH2 0x594 JUMP JUMPDEST DUP5 ADD SWAP2 POP POP SWAP3 SWAP2 POP POP JUMP JUMPDEST PUSH1 0x0 PUSH1 0x80 DUP3 ADD SWAP1 POP PUSH2 0xD42 PUSH1 0x0 DUP4 ADD DUP8 PUSH2 0x726 JUMP JUMPDEST DUP2 DUP2 SUB PUSH1 0x20 DUP4 ADD MSTORE PUSH2 0xD54 DUP2 DUP7 PUSH2 0xCF4 JUMP JUMPDEST SWAP1 POP PUSH2 0xD63 PUSH1 0x40 DUP4 ADD DUP6 PUSH2 0x726 JUMP JUMPDEST DUP2 DUP2 SUB PUSH1 0x60 DUP4 ADD MSTORE PUSH2 0xD75 DUP2 DUP5 PUSH2 0xCF4 JUMP JUMPDEST SWAP1 POP SWAP6 SWAP5 POP POP POP POP POP JUMP INVALID LOG2 PUSH5 0x6970667358 0x22 SLT KECCAK256 0xF6 DUP5 CALLDATACOPY ORIGIN 0xEA SAR 0x2B 0xB9 0xAF INVALID 0xC9 0x2B PUSH2 0x5C5D SIGNEXTEND LOG0 PC 0x27 PUSH17 0xBBD11E1F7DB72C357E4F411E64736F6C63 NUMBER STOP ADDMOD SHR STOP CALLER "
        },
        "methodIdentifiers": {
          "addToBlockChain(address,uint256,string,string)": "b2da0960",
          "getAllTransactions()": "27506f53",
          "getTransactionCount()": "2e7700f0"
        }
      }
    }
  }
}