{
  "_format": "hh-sol-artifact-1",
  "contractName": "Transactions",
  "sourceName": "contracts/Transactions.sol",
  "abi": [
    {
      "anonymous": false,
      "inputs": [
        {
          "indexed": true,
          "internalType": "address",
          "name": "from",
          "type": "address"
        },
        {
          "indexed": true,
          "internalType": "address",
          "name": "to",
          "type": "address"
        },
        {
          "indexed": false,
          "internalType": "uint256",
          "name": "amount",
          "type": "uint256"
        },
        {
          "indexed": false,
          "internalType": "string",
          "name": "message",
          "type": "string"
        },
        {
          "indexed": false,
          "internalType": "uint256",
          "name": "timestamp",
          "type": "uint256"
        }
      ],
      "name": "Transfer",
      "type": "event"
    },
    {
      "inputs": [
        {
          "internalType": "address payable",
          "name": "receiver",
          "type": "address"
        },
        {
          "internalType": "string",
          "name": "message",
          "type": "string"
        }
      ],
      "name": "addToBlockChain",
      "outputs": [],
      "stateMutability": "payable",
      "type": "function"
    },
    {
      "inputs": [],
      "name": "getAllTransactions",
      "outputs": [
        {
          "components": [
            {
              "internalType": "address",
              "name": "sender",
              "type": "address"
            },
            {
              "internalType": "address",
              "name": "receiver",
              "type": "address"
            },
            {
              "internalType": "uint256",
              "name": "amount",
              "type": "uint256"
            },
            {
              "internalType": "string",
              "name": "message",
              "type": "string"
            },
            {
              "internalType": "uint256",
              "name": "timestamp",
              "type": "uint256"
            }
          ],
          "internalType": "struct Transactions.TransferStruct[]",
          "name": "",
          "type": "tuple[]"
        }
      ],
      "stateMutability": "view",
      "type": "function"
    },
    {
      "inputs": [],
      "name": "getTransactionCount",
      "outputs": [
        {
          "internalType": "uint256",
          "name": "",
          "type": "uint256"
        }
      ],
      "stateMutability": "view",
      "type": "function"
    }
  ],
  "bytecode": "0x6080604052348015600f57600080fd5b50610c798061001f6000396000f3fe6080604052600436106100345760003560e01c806327506f53146100395780632e7700f014610064578063a546db461461008f575b600080fd5b34801561004557600080fd5b5061004e6100ab565b60405161005b919061064b565b60405180910390f35b34801561007057600080fd5b5061007961025c565b604051610086919061067c565b60405180910390f35b6100a960048036038101906100a4919061081e565b610265565b005b60606001805480602002602001604051908101604052809291908181526020016000905b8282101561025357838290600052602060002090600502016040518060a00160405290816000820160009054906101000a900473ffffffffffffffffffffffffffffffffffffffff1673ffffffffffffffffffffffffffffffffffffffff1673ffffffffffffffffffffffffffffffffffffffff1681526020016001820160009054906101000a900473ffffffffffffffffffffffffffffffffffffffff1673ffffffffffffffffffffffffffffffffffffffff1673ffffffffffffffffffffffffffffffffffffffff168152602001600282015481526020016003820180546101b8906108a9565b80601f01602080910402602001604051908101604052809291908181526020018280546101e4906108a9565b80156102315780601f1061020657610100808354040283529160200191610231565b820191906000526020600020905b81548152906001019060200180831161021457829003601f168201915b50505050508152602001600482015481525050815260200190600101906100cf565b50505050905090565b60008054905090565b6000349050600160008082825461027c9190610909565b9250508190555060016040518060a001604052803373ffffffffffffffffffffffffffffffffffffffff1681526020018573ffffffffffffffffffffffffffffffffffffffff16815260200183815260200184815260200142815250908060018154018082558091505060019003906000526020600020906005020160009091909190915060008201518160000160006101000a81548173ffffffffffffffffffffffffffffffffffffffff021916908373ffffffffffffffffffffffffffffffffffffffff16021790555060208201518160010160006101000a81548173ffffffffffffffffffffffffffffffffffffffff021916908373ffffffffffffffffffffffffffffffffffffffff1602179055506040820151816002015560608201518160030190816103ae9190610ae9565b506080820151816004015550508273ffffffffffffffffffffffffffffffffffffffff163373ffffffffffffffffffffffffffffffffffffffff167fc4b32d7ff75a51e487f3cbb5d3202f2efecca1f4c2b987e0039c1d3220b48a8383854260405161041c93929190610c05565b60405180910390a3505050565b600081519050919050565b600082825260208201905092915050565b6000819050602082019050919050565b600073ffffffffffffffffffffffffffffffffffffffff82169050919050565b600061048082610455565b9050919050565b61049081610475565b82525050565b6000819050919050565b6104a981610496565b82525050565b600081519050919050565b600082825260208201905092915050565b60005b838110156104e95780820151818401526020810190506104ce565b60008484015250505050565b6000601f19601f8301169050919050565b6000610511826104af565b61051b81856104ba565b935061052b8185602086016104cb565b610534816104f5565b840191505092915050565b600060a0830160008301516105576000860182610487565b50602083015161056a6020860182610487565b50604083015161057d60408601826104a0565b50606083015184820360608601526105958282610506565b91505060808301516105aa60808601826104a0565b508091505092915050565b60006105c1838361053f565b905092915050565b6000602082019050919050565b60006105e182610429565b6105eb8185610434565b9350836020820285016105fd85610445565b8060005b85811015610639578484038952815161061a85826105b5565b9450610625836105c9565b925060208a01995050600181019050610601565b50829750879550505050505092915050565b6000602082019050818103600083015261066581846105d6565b905092915050565b61067681610496565b82525050565b6000602082019050610691600083018461066d565b92915050565b6000604051905090565b600080fd5b600080fd5b60006106b682610455565b9050919050565b6106c6816106ab565b81146106d157600080fd5b50565b6000813590506106e3816106bd565b92915050565b600080fd5b600080fd5b7f4e487b7100000000000000000000000000000000000000000000000000000000600052604160045260246000fd5b61072b826104f5565b810181811067ffffffffffffffff8211171561074a576107496106f3565b5b80604052505050565b600061075d610697565b90506107698282610722565b919050565b600067ffffffffffffffff821115610789576107886106f3565b5b610792826104f5565b9050602081019050919050565b82818337600083830152505050565b60006107c16107bc8461076e565b610753565b9050828152602081018484840111156107dd576107dc6106ee565b5b6107e884828561079f565b509392505050565b600082601f830112610805576108046106e9565b5b81356108158482602086016107ae565b91505092915050565b60008060408385031215610835576108346106a1565b5b6000610843858286016106d4565b925050602083013567ffffffffffffffff811115610864576108636106a6565b5b610870858286016107f0565b9150509250929050565b7f4e487b7100000000000000000000000000000000000000000000000000000000600052602260045260246000fd5b600060028204905060018216806108c157607f821691505b6020821081036108d4576108d361087a565b5b50919050565b7f4e487b7100000000000000000000000000000000000000000000000000000000600052601160045260246000fd5b600061091482610496565b915061091f83610496565b9250828201905080821115610937576109366108da565b5b92915050565b60008190508160005260206000209050919050565b60006020601f8301049050919050565b600082821b905092915050565b60006008830261099f7fffffffffffffffffffffffffffffffffffffffffffffffffffffffffffffffff82610962565b6109a98683610962565b95508019841693508086168417925050509392505050565b6000819050919050565b60006109e66109e16109dc84610496565b6109c1565b610496565b9050919050565b6000819050919050565b610a00836109cb565b610a14610a0c826109ed565b84845461096f565b825550505050565b600090565b610a29610a1c565b610a348184846109f7565b505050565b5b81811015610a5857610a4d600082610a21565b600181019050610a3a565b5050565b601f821115610a9d57610a6e8161093d565b610a7784610952565b81016020851015610a86578190505b610a9a610a9285610952565b830182610a39565b50505b505050565b600082821c905092915050565b6000610ac060001984600802610aa2565b1980831691505092915050565b6000610ad98383610aaf565b9150826002028217905092915050565b610af2826104af565b67ffffffffffffffff811115610b0b57610b0a6106f3565b5b610b1582546108a9565b610b20828285610a5c565b600060209050601f831160018114610b535760008415610b41578287015190505b610b4b8582610acd565b865550610bb3565b601f198416610b618661093d565b60005b82811015610b8957848901518255600182019150602085019450602081019050610b64565b86831015610ba65784890151610ba2601f891682610aaf565b8355505b6001600288020188555050505b505050505050565b600082825260208201905092915050565b6000610bd7826104af565b610be18185610bbb565b9350610bf18185602086016104cb565b610bfa816104f5565b840191505092915050565b6000606082019050610c1a600083018661066d565b8181036020830152610c2c8185610bcc565b9050610c3b604083018461066d565b94935050505056fea264697066735822122038a471363b1743e1527e3004baf059bb913b8cf5301b20c3ad4d7a9a29ad8f6764736f6c634300081c0033",
  "linkReferences": {},
  "deployedLinkReferences": {}
}