{
  "_format": "hh-sol-artifact-1",
  "contractName": "Transactions",
  "sourceName": "contracts/Transactions.sol",
  "abi": [
    {
      "anonymous": false,
      "inputs": [
        {
          "indexed": true,
          "internalType": "address",
          "name": "from",
          "type": "address"
        },
        {
          "indexed": true,
          "internalType": "address",
          "name": "to",
          "type": "address"
        },
        {
          "indexed": false,
          "internalType": "uint256",
          "name": "amount",
          "type": "uint256"
        },
        {
          "indexed": false,
          "internalType": "string",
          "name": "message",
          "type": "string"
        },
        {
          "indexed": false,
          "internalType": "uint256",
          "name": "timestamp",
          "type": "uint256"
        }
      ],
      "name": "Transfer",
      "type": "event"
    },
    {
      "inputs": [
        {
          "internalType": "address payable",
          "name": "receiver",
          "type": "address"
        },
        {
          "internalType": "uint256",
          "name": "amount",
          "type": "uint256"
        },
        {
          "internalType": "string",
          "name": "message",
          "type": "string"
        }
      ],
      "name": "addToBlockChain",
      "outputs": [],
      "stateMutability": "nonpayable",
      "type": "function"
    },
    {
      "inputs": [],
      "name": "getAllTransactions",
      "outputs": [
        {
          "components": [
            {
              "internalType": "address",
              "name": "sender",
              "type": "address"
            },
            {
              "internalType": "address",
              "name": "receiver",
              "type": "address"
            },
            {
              "internalType": "uint256",
              "name": "amount",
              "type": "uint256"
            },
            {
              "internalType": "string",
              "name": "message",
              "type": "string"
            },
            {
              "internalType": "uint256",
              "name": "timestamp",
              "type": "uint256"
            }
          ],
          "internalType": "struct Transactions.TransferStruct[]",
          "name": "",
          "type": "tuple[]"
        }
      ],
      "stateMutability": "view",
      "type": "function"
    },
    {
      "inputs": [],
      "name": "getTransactionCount",
      "outputs": [
        {
          "internalType": "uint256",
          "name": "",
          "type": "uint256"
        }
      ],
      "stateMutability": "view",
      "type": "function"
    }
  ],
  "bytecode": "0x6080604052348015600f57600080fd5b50610ca68061001f6000396000f3fe608060405234801561001057600080fd5b50600436106100415760003560e01c806327506f53146100465780632e7700f014610064578063d5594fb814610082575b600080fd5b61004e61009e565b60405161005b9190610639565b60405180910390f35b61006c61024f565b604051610079919061066a565b60405180910390f35b61009c60048036038101906100979190610838565b610258565b005b60606001805480602002602001604051908101604052809291908181526020016000905b8282101561024657838290600052602060002090600502016040518060a00160405290816000820160009054906101000a900473ffffffffffffffffffffffffffffffffffffffff1673ffffffffffffffffffffffffffffffffffffffff1673ffffffffffffffffffffffffffffffffffffffff1681526020016001820160009054906101000a900473ffffffffffffffffffffffffffffffffffffffff1673ffffffffffffffffffffffffffffffffffffffff1673ffffffffffffffffffffffffffffffffffffffff168152602001600282015481526020016003820180546101ab906108d6565b80601f01602080910402602001604051908101604052809291908181526020018280546101d7906108d6565b80156102245780601f106101f957610100808354040283529160200191610224565b820191906000526020600020905b81548152906001019060200180831161020757829003601f168201915b50505050508152602001600482015481525050815260200190600101906100c2565b50505050905090565b60008054905090565b600160008082825461026a9190610936565b9250508190555060016040518060a001604052803373ffffffffffffffffffffffffffffffffffffffff1681526020018573ffffffffffffffffffffffffffffffffffffffff16815260200184815260200183815260200142815250908060018154018082558091505060019003906000526020600020906005020160009091909190915060008201518160000160006101000a81548173ffffffffffffffffffffffffffffffffffffffff021916908373ffffffffffffffffffffffffffffffffffffffff16021790555060208201518160010160006101000a81548173ffffffffffffffffffffffffffffffffffffffff021916908373ffffffffffffffffffffffffffffffffffffffff16021790555060408201518160020155606082015181600301908161039c9190610b16565b506080820151816004015550508273ffffffffffffffffffffffffffffffffffffffff163373ffffffffffffffffffffffffffffffffffffffff167fc4b32d7ff75a51e487f3cbb5d3202f2efecca1f4c2b987e0039c1d3220b48a8384844260405161040a93929190610c32565b60405180910390a3505050565b600081519050919050565b600082825260208201905092915050565b6000819050602082019050919050565b600073ffffffffffffffffffffffffffffffffffffffff82169050919050565b600061046e82610443565b9050919050565b61047e81610463565b82525050565b6000819050919050565b61049781610484565b82525050565b600081519050919050565b600082825260208201905092915050565b60005b838110156104d75780820151818401526020810190506104bc565b60008484015250505050565b6000601f19601f8301169050919050565b60006104ff8261049d565b61050981856104a8565b93506105198185602086016104b9565b610522816104e3565b840191505092915050565b600060a0830160008301516105456000860182610475565b5060208301516105586020860182610475565b50604083015161056b604086018261048e565b506060830151848203606086015261058382826104f4565b9150506080830151610598608086018261048e565b508091505092915050565b60006105af838361052d565b905092915050565b6000602082019050919050565b60006105cf82610417565b6105d98185610422565b9350836020820285016105eb85610433565b8060005b85811015610627578484038952815161060885826105a3565b9450610613836105b7565b925060208a019950506001810190506105ef565b50829750879550505050505092915050565b6000602082019050818103600083015261065381846105c4565b905092915050565b61066481610484565b82525050565b600060208201905061067f600083018461065b565b92915050565b6000604051905090565b600080fd5b600080fd5b60006106a482610443565b9050919050565b6106b481610699565b81146106bf57600080fd5b50565b6000813590506106d1816106ab565b92915050565b6106e081610484565b81146106eb57600080fd5b50565b6000813590506106fd816106d7565b92915050565b600080fd5b600080fd5b7f4e487b7100000000000000000000000000000000000000000000000000000000600052604160045260246000fd5b610745826104e3565b810181811067ffffffffffffffff821117156107645761076361070d565b5b80604052505050565b6000610777610685565b9050610783828261073c565b919050565b600067ffffffffffffffff8211156107a3576107a261070d565b5b6107ac826104e3565b9050602081019050919050565b82818337600083830152505050565b60006107db6107d684610788565b61076d565b9050828152602081018484840111156107f7576107f6610708565b5b6108028482856107b9565b509392505050565b600082601f83011261081f5761081e610703565b5b813561082f8482602086016107c8565b91505092915050565b6000806000606084860312156108515761085061068f565b5b600061085f868287016106c2565b9350506020610870868287016106ee565b925050604084013567ffffffffffffffff81111561089157610890610694565b5b61089d8682870161080a565b9150509250925092565b7f4e487b7100000000000000000000000000000000000000000000000000000000600052602260045260246000fd5b600060028204905060018216806108ee57607f821691505b602082108103610901576109006108a7565b5b50919050565b7f4e487b7100000000000000000000000000000000000000000000000000000000600052601160045260246000fd5b600061094182610484565b915061094c83610484565b925082820190508082111561096457610963610907565b5b92915050565b60008190508160005260206000209050919050565b60006020601f8301049050919050565b600082821b905092915050565b6000600883026109cc7fffffffffffffffffffffffffffffffffffffffffffffffffffffffffffffffff8261098f565b6109d6868361098f565b95508019841693508086168417925050509392505050565b6000819050919050565b6000610a13610a0e610a0984610484565b6109ee565b610484565b9050919050565b6000819050919050565b610a2d836109f8565b610a41610a3982610a1a565b84845461099c565b825550505050565b600090565b610a56610a49565b610a61818484610a24565b505050565b5b81811015610a8557610a7a600082610a4e565b600181019050610a67565b5050565b601f821115610aca57610a9b8161096a565b610aa48461097f565b81016020851015610ab3578190505b610ac7610abf8561097f565b830182610a66565b50505b505050565b600082821c905092915050565b6000610aed60001984600802610acf565b1980831691505092915050565b6000610b068383610adc565b9150826002028217905092915050565b610b1f8261049d565b67ffffffffffffffff811115610b3857610b3761070d565b5b610b4282546108d6565b610b4d828285610a89565b600060209050601f831160018114610b805760008415610b6e578287015190505b610b788582610afa565b865550610be0565b601f198416610b8e8661096a565b60005b82811015610bb657848901518255600182019150602085019450602081019050610b91565b86831015610bd35784890151610bcf601f891682610adc565b8355505b6001600288020188555050505b505050505050565b600082825260208201905092915050565b6000610c048261049d565b610c0e8185610be8565b9350610c1e8185602086016104b9565b610c27816104e3565b840191505092915050565b6000606082019050610c47600083018661065b565b8181036020830152610c598185610bf9565b9050610c68604083018461065b565b94935050505056fea2646970667358221220bee9ddd93e4eac91b40fa1128dd044fefb2efccf213ff5affe1eaa43fdfa215664736f6c634300081c0033",
  "linkReferences": {},
  "deployedLinkReferences": {}
}